{
  "_format": "hh-sol-artifact-1",
  "contractName": "OERToken",
  "sourceName": "contracts/OERToken.sol",
  "abi": [
    {
      "inputs": [],
      "stateMutability": "nonpayable",
      "type": "constructor"
    },
    {
      "inputs": [
        {
          "internalType": "address",
          "name": "spender",
          "type": "address"
        },
        {
          "internalType": "uint256",
          "name": "allowance",
          "type": "uint256"
        },
        {
          "internalType": "uint256",
          "name": "needed",
          "type": "uint256"
        }
      ],
      "name": "ERC20InsufficientAllowance",
      "type": "error"
    },
    {
      "inputs": [
        {
          "internalType": "address",
          "name": "sender",
          "type": "address"
        },
        {
          "internalType": "uint256",
          "name": "balance",
          "type": "uint256"
        },
        {
          "internalType": "uint256",
          "name": "needed",
          "type": "uint256"
        }
      ],
      "name": "ERC20InsufficientBalance",
      "type": "error"
    },
    {
      "inputs": [
        {
          "internalType": "address",
          "name": "approver",
          "type": "address"
        }
      ],
      "name": "ERC20InvalidApprover",
      "type": "error"
    },
    {
      "inputs": [
        {
          "internalType": "address",
          "name": "receiver",
          "type": "address"
        }
      ],
      "name": "ERC20InvalidReceiver",
      "type": "error"
    },
    {
      "inputs": [
        {
          "internalType": "address",
          "name": "sender",
          "type": "address"
        }
      ],
      "name": "ERC20InvalidSender",
      "type": "error"
    },
    {
      "inputs": [
        {
          "internalType": "address",
          "name": "spender",
          "type": "address"
        }
      ],
      "name": "ERC20InvalidSpender",
      "type": "error"
    },
    {
      "anonymous": false,
      "inputs": [
        {
          "indexed": true,
          "internalType": "address",
          "name": "owner",
          "type": "address"
        },
        {
          "indexed": true,
          "internalType": "address",
          "name": "spender",
          "type": "address"
        },
        {
          "indexed": false,
          "internalType": "uint256",
          "name": "value",
          "type": "uint256"
        }
      ],
      "name": "Approval",
      "type": "event"
    },
    {
      "anonymous": false,
      "inputs": [
        {
          "indexed": true,
          "internalType": "address",
          "name": "from",
          "type": "address"
        },
        {
          "indexed": true,
          "internalType": "address",
          "name": "to",
          "type": "address"
        },
        {
          "indexed": false,
          "internalType": "uint256",
          "name": "value",
          "type": "uint256"
        }
      ],
      "name": "Transfer",
      "type": "event"
    },
    {
      "inputs": [],
      "name": "DECIMALS",
      "outputs": [
        {
          "internalType": "uint256",
          "name": "",
          "type": "uint256"
        }
      ],
      "stateMutability": "view",
      "type": "function"
    },
    {
      "inputs": [],
      "name": "MAX_TOKENS_PER_USER",
      "outputs": [
        {
          "internalType": "uint256",
          "name": "",
          "type": "uint256"
        }
      ],
      "stateMutability": "view",
      "type": "function"
    },
    {
      "inputs": [],
      "name": "TOKENS_PER_CLAIM_PERIOD",
      "outputs": [
        {
          "internalType": "uint256",
          "name": "",
          "type": "uint256"
        }
      ],
      "stateMutability": "view",
      "type": "function"
    },
    {
      "inputs": [],
      "name": "TOKEN_NAME",
      "outputs": [
        {
          "internalType": "string",
          "name": "",
          "type": "string"
        }
      ],
      "stateMutability": "view",
      "type": "function"
    },
    {
      "inputs": [],
      "name": "TOKEN_SYMBOL",
      "outputs": [
        {
          "internalType": "string",
          "name": "",
          "type": "string"
        }
      ],
      "stateMutability": "view",
      "type": "function"
    },
    {
      "inputs": [],
      "name": "TOTAL_SUPPLY_TOKENS",
      "outputs": [
        {
          "internalType": "uint256",
          "name": "",
          "type": "uint256"
        }
      ],
      "stateMutability": "view",
      "type": "function"
    },
    {
      "inputs": [],
      "name": "VOTING_COOLDOWN",
      "outputs": [
        {
          "internalType": "uint256",
          "name": "",
          "type": "uint256"
        }
      ],
      "stateMutability": "view",
      "type": "function"
    },
    {
      "inputs": [
        {
          "internalType": "address",
          "name": "owner",
          "type": "address"
        },
        {
          "internalType": "address",
          "name": "spender",
          "type": "address"
        }
      ],
      "name": "allowance",
      "outputs": [
        {
          "internalType": "uint256",
          "name": "",
          "type": "uint256"
        }
      ],
      "stateMutability": "view",
      "type": "function"
    },
    {
      "inputs": [
        {
          "internalType": "address",
          "name": "spender",
          "type": "address"
        },
        {
          "internalType": "uint256",
          "name": "value",
          "type": "uint256"
        }
      ],
      "name": "approve",
      "outputs": [
        {
          "internalType": "bool",
          "name": "",
          "type": "bool"
        }
      ],
      "stateMutability": "nonpayable",
      "type": "function"
    },
    {
      "inputs": [
        {
          "internalType": "address",
          "name": "account",
          "type": "address"
        }
      ],
      "name": "balanceOf",
      "outputs": [
        {
          "internalType": "uint256",
          "name": "",
          "type": "uint256"
        }
      ],
      "stateMutability": "view",
      "type": "function"
    },
    {
      "inputs": [],
      "name": "claimVotingTokens",
      "outputs": [],
      "stateMutability": "nonpayable",
      "type": "function"
    },
    {
      "inputs": [],
      "name": "decimals",
      "outputs": [
        {
          "internalType": "uint8",
          "name": "",
          "type": "uint8"
        }
      ],
      "stateMutability": "view",
      "type": "function"
    },
    {
      "inputs": [
        {
          "internalType": "address",
          "name": "",
          "type": "address"
        }
      ],
      "name": "lastVoteTimestamp",
      "outputs": [
        {
          "internalType": "uint256",
          "name": "",
          "type": "uint256"
        }
      ],
      "stateMutability": "view",
      "type": "function"
    },
    {
      "inputs": [],
      "name": "name",
      "outputs": [
        {
          "internalType": "string",
          "name": "",
          "type": "string"
        }
      ],
      "stateMutability": "view",
      "type": "function"
    },
    {
      "inputs": [],
      "name": "symbol",
      "outputs": [
        {
          "internalType": "string",
          "name": "",
          "type": "string"
        }
      ],
      "stateMutability": "view",
      "type": "function"
    },
    {
      "inputs": [],
      "name": "totalSupply",
      "outputs": [
        {
          "internalType": "uint256",
          "name": "",
          "type": "uint256"
        }
      ],
      "stateMutability": "view",
      "type": "function"
    },
    {
      "inputs": [
        {
          "internalType": "address",
          "name": "to",
          "type": "address"
        },
        {
          "internalType": "uint256",
          "name": "value",
          "type": "uint256"
        }
      ],
      "name": "transfer",
      "outputs": [
        {
          "internalType": "bool",
          "name": "",
          "type": "bool"
        }
      ],
      "stateMutability": "nonpayable",
      "type": "function"
    },
    {
      "inputs": [
        {
          "internalType": "address",
          "name": "from",
          "type": "address"
        },
        {
          "internalType": "address",
          "name": "to",
          "type": "address"
        },
        {
          "internalType": "uint256",
          "name": "value",
          "type": "uint256"
        }
      ],
      "name": "transferFrom",
      "outputs": [
        {
          "internalType": "bool",
          "name": "",
          "type": "bool"
        }
      ],
      "stateMutability": "nonpayable",
      "type": "function"
    }
  ],
  "bytecode": "0x608060405234801561001057600080fd5b506040518060400160405280602081526020017f4f70656e20456475636174696f6e616c205265736f757263657320546f6b656e8152506040518060400160405280600481526020017f4f45525400000000000000000000000000000000000000000000000000000000815250816003908161008c91906102f4565b50806004908161009c91906102f4565b5050506103c6565b600081519050919050565b7f4e487b7100000000000000000000000000000000000000000000000000000000600052604160045260246000fd5b7f4e487b7100000000000000000000000000000000000000000000000000000000600052602260045260246000fd5b6000600282049050600182168061012557607f821691505b602082108103610138576101376100de565b5b50919050565b60008190508160005260206000209050919050565b60006020601f8301049050919050565b600082821b905092915050565b6000600883026101a07fffffffffffffffffffffffffffffffffffffffffffffffffffffffffffffffff82610163565b6101aa8683610163565b95508019841693508086168417925050509392505050565b6000819050919050565b6000819050919050565b60006101f16101ec6101e7846101c2565b6101cc565b6101c2565b9050919050565b6000819050919050565b61020b836101d6565b61021f610217826101f8565b848454610170565b825550505050565b600090565b610234610227565b61023f818484610202565b505050565b5b818110156102635761025860008261022c565b600181019050610245565b5050565b601f8211156102a8576102798161013e565b61028284610153565b81016020851015610291578190505b6102a561029d85610153565b830182610244565b50505b505050565b600082821c905092915050565b60006102cb600019846008026102ad565b1980831691505092915050565b60006102e483836102ba565b9150826002028217905092915050565b6102fd826100a4565b67ffffffffffffffff811115610316576103156100af565b5b610320825461010d565b61032b828285610267565b600060209050601f83116001811461035e576000841561034c578287015190505b61035685826102d8565b8655506103be565b601f19841661036c8661013e565b60005b828110156103945784890151825560018201915060208501945060208101905061036f565b868310156103b157848901516103ad601f8916826102ba565b8355505b6001600288020188555050505b505050505050565b611664806103d56000396000f3fe608060405234801561001057600080fd5b50600436106101165760003560e01c80633b5c13b2116100a257806395d89b411161007157806395d89b41146102c3578063a9059cbb146102e1578063c5bf1ced14610311578063dd62ed3e1461032f578063de1cf4ad1461035f57610116565b80633b5c13b21461024d57806340db40d51461026b57806369c5dfd81461027557806370a082311461029357610116565b806318821400116100e957806318821400146101a557806323b872dd146101c35780632a905318146101f35780632e0f262514610211578063313ce5671461022f57610116565b806306fdde031461011b578063095ea7b3146101395780630f780b561461016957806318160ddd14610187575b600080fd5b61012361038f565b6040516101309190610fb4565b60405180910390f35b610153600480360381019061014e919061106f565b610421565b60405161016091906110ca565b60405180910390f35b610171610444565b60405161017e91906110f4565b60405180910390f35b61018f61044b565b60405161019c91906110f4565b60405180910390f35b6101ad610455565b6040516101ba9190610fb4565b60405180910390f35b6101dd60048036038101906101d8919061110f565b61048e565b6040516101ea91906110ca565b60405180910390f35b6101fb6104bd565b6040516102089190610fb4565b60405180910390f35b6102196104f6565b60405161022691906110f4565b60405180910390f35b6102376104fb565b604051610244919061117e565b60405180910390f35b610255610504565b60405161026291906110f4565b60405180910390f35b610273610521565b005b61027d61072b565b60405161028a91906110f4565b60405180910390f35b6102ad60048036038101906102a89190611199565b610748565b6040516102ba91906110f4565b60405180910390f35b6102cb610790565b6040516102d89190610fb4565b60405180910390f35b6102fb60048036038101906102f6919061106f565b610822565b60405161030891906110ca565b60405180910390f35b610319610845565b60405161032691906110f4565b60405180910390f35b610349600480360381019061034491906111c6565b610864565b60405161035691906110f4565b60405180910390f35b61037960048036038101906103749190611199565b6108eb565b60405161038691906110f4565b60405180910390f35b60606003805461039e90611235565b80601f01602080910402602001604051908101604052809291908181526020018280546103ca90611235565b80156104175780601f106103ec57610100808354040283529160200191610417565b820191906000526020600020905b8154815290600101906020018083116103fa57829003601f168201915b5050505050905090565b60008061042c610903565b905061043981858561090b565b600191505092915050565b6201518081565b6000600254905090565b6040518060400160405280602081526020017f4f70656e20456475636174696f6e616c205265736f757263657320546f6b656e81525081565b600080610499610903565b90506104a685828561091d565b6104b18585856109b2565b60019150509392505050565b6040518060400160405280600481526020017f4f4552540000000000000000000000000000000000000000000000000000000081525081565b601281565b60006012905090565b6012600a61051291906113c8565b600a61051e9190611413565b81565b62015180600560003373ffffffffffffffffffffffffffffffffffffffff1673ffffffffffffffffffffffffffffffffffffffff1681526020019081526020016000205461056f9190611455565b4210156105b1576040517f08c379a00000000000000000000000000000000000000000000000000000000081526004016105a8906114d5565b60405180910390fd5b6012600a6105bf91906113c8565b60646105cb9190611413565b6012600a6105d991906113c8565b600a6105e59190611413565b6105ee33610748565b6105f89190611455565b1115610639576040517f08c379a000000000000000000000000000000000000000000000000000000000815260040161063090611541565b60405180910390fd5b6012600a61064791906113c8565b620f42406106559190611413565b6012600a61066391906113c8565b600a61066f9190611413565b61067761044b565b6106819190611455565b11156106c2576040517f08c379a00000000000000000000000000000000000000000000000000000000081526004016106b9906115ad565b60405180910390fd5b6106e5336012600a6106d491906113c8565b600a6106e09190611413565b610aa6565b42600560003373ffffffffffffffffffffffffffffffffffffffff1673ffffffffffffffffffffffffffffffffffffffff16815260200190815260200160002081905550565b6012600a61073991906113c8565b60646107459190611413565b81565b60008060008373ffffffffffffffffffffffffffffffffffffffff1673ffffffffffffffffffffffffffffffffffffffff168152602001908152602001600020549050919050565b60606004805461079f90611235565b80601f01602080910402602001604051908101604052809291908181526020018280546107cb90611235565b80156108185780601f106107ed57610100808354040283529160200191610818565b820191906000526020600020905b8154815290600101906020018083116107fb57829003601f168201915b5050505050905090565b60008061082d610903565b905061083a8185856109b2565b600191505092915050565b6012600a61085391906113c8565b620f42406108619190611413565b81565b6000600160008473ffffffffffffffffffffffffffffffffffffffff1673ffffffffffffffffffffffffffffffffffffffff16815260200190815260200160002060008373ffffffffffffffffffffffffffffffffffffffff1673ffffffffffffffffffffffffffffffffffffffff16815260200190815260200160002054905092915050565b60056020528060005260406000206000915090505481565b600033905090565b6109188383836001610b28565b505050565b60006109298484610864565b90507fffffffffffffffffffffffffffffffffffffffffffffffffffffffffffffffff8110156109ac578181101561099c578281836040517ffb8f41b2000000000000000000000000000000000000000000000000000000008152600401610993939291906115dc565b60405180910390fd5b6109ab84848484036000610b28565b5b50505050565b600073ffffffffffffffffffffffffffffffffffffffff168373ffffffffffffffffffffffffffffffffffffffff1603610a245760006040517f96c6fd1e000000000000000000000000000000000000000000000000000000008152600401610a1b9190611613565b60405180910390fd5b600073ffffffffffffffffffffffffffffffffffffffff168273ffffffffffffffffffffffffffffffffffffffff1603610a965760006040517fec442f05000000000000000000000000000000000000000000000000000000008152600401610a8d9190611613565b60405180910390fd5b610aa1838383610cff565b505050565b600073ffffffffffffffffffffffffffffffffffffffff168273ffffffffffffffffffffffffffffffffffffffff1603610b185760006040517fec442f05000000000000000000000000000000000000000000000000000000008152600401610b0f9190611613565b60405180910390fd5b610b2460008383610cff565b5050565b600073ffffffffffffffffffffffffffffffffffffffff168473ffffffffffffffffffffffffffffffffffffffff1603610b9a5760006040517fe602df05000000000000000000000000000000000000000000000000000000008152600401610b919190611613565b60405180910390fd5b600073ffffffffffffffffffffffffffffffffffffffff168373ffffffffffffffffffffffffffffffffffffffff1603610c0c5760006040517f94280d62000000000000000000000000000000000000000000000000000000008152600401610c039190611613565b60405180910390fd5b81600160008673ffffffffffffffffffffffffffffffffffffffff1673ffffffffffffffffffffffffffffffffffffffff16815260200190815260200160002060008573ffffffffffffffffffffffffffffffffffffffff1673ffffffffffffffffffffffffffffffffffffffff168152602001908152602001600020819055508015610cf9578273ffffffffffffffffffffffffffffffffffffffff168473ffffffffffffffffffffffffffffffffffffffff167f8c5be1e5ebec7d5bd14f71427d1e84f3dd0314c0f7b2291e5b200ac8c7c3b92584604051610cf091906110f4565b60405180910390a35b50505050565b600073ffffffffffffffffffffffffffffffffffffffff168373ffffffffffffffffffffffffffffffffffffffff1603610d51578060026000828254610d459190611455565b92505081905550610e24565b60008060008573ffffffffffffffffffffffffffffffffffffffff1673ffffffffffffffffffffffffffffffffffffffff16815260200190815260200160002054905081811015610ddd578381836040517fe450d38c000000000000000000000000000000000000000000000000000000008152600401610dd4939291906115dc565b60405180910390fd5b8181036000808673ffffffffffffffffffffffffffffffffffffffff1673ffffffffffffffffffffffffffffffffffffffff16815260200190815260200160002081905550505b600073ffffffffffffffffffffffffffffffffffffffff168273ffffffffffffffffffffffffffffffffffffffff1603610e6d5780600260008282540392505081905550610eba565b806000808473ffffffffffffffffffffffffffffffffffffffff1673ffffffffffffffffffffffffffffffffffffffff168152602001908152602001600020600082825401925050819055505b8173ffffffffffffffffffffffffffffffffffffffff168373ffffffffffffffffffffffffffffffffffffffff167fddf252ad1be2c89b69c2b068fc378daa952ba7f163c4a11628f55a4df523b3ef83604051610f1791906110f4565b60405180910390a3505050565b600081519050919050565b600082825260208201905092915050565b60005b83811015610f5e578082015181840152602081019050610f43565b60008484015250505050565b6000601f19601f8301169050919050565b6000610f8682610f24565b610f908185610f2f565b9350610fa0818560208601610f40565b610fa981610f6a565b840191505092915050565b60006020820190508181036000830152610fce8184610f7b565b905092915050565b600080fd5b600073ffffffffffffffffffffffffffffffffffffffff82169050919050565b600061100682610fdb565b9050919050565b61101681610ffb565b811461102157600080fd5b50565b6000813590506110338161100d565b92915050565b6000819050919050565b61104c81611039565b811461105757600080fd5b50565b60008135905061106981611043565b92915050565b6000806040838503121561108657611085610fd6565b5b600061109485828601611024565b92505060206110a58582860161105a565b9150509250929050565b60008115159050919050565b6110c4816110af565b82525050565b60006020820190506110df60008301846110bb565b92915050565b6110ee81611039565b82525050565b600060208201905061110960008301846110e5565b92915050565b60008060006060848603121561112857611127610fd6565b5b600061113686828701611024565b935050602061114786828701611024565b92505060406111588682870161105a565b9150509250925092565b600060ff82169050919050565b61117881611162565b82525050565b6000602082019050611193600083018461116f565b92915050565b6000602082840312156111af576111ae610fd6565b5b60006111bd84828501611024565b91505092915050565b600080604083850312156111dd576111dc610fd6565b5b60006111eb85828601611024565b92505060206111fc85828601611024565b9150509250929050565b7f4e487b7100000000000000000000000000000000000000000000000000000000600052602260045260246000fd5b6000600282049050600182168061124d57607f821691505b6020821081036112605761125f611206565b5b50919050565b7f4e487b7100000000000000000000000000000000000000000000000000000000600052601160045260246000fd5b60008160011c9050919050565b6000808291508390505b60018511156112ec578086048111156112c8576112c7611266565b5b60018516156112d75780820291505b80810290506112e585611295565b94506112ac565b94509492505050565b60008261130557600190506113c1565b8161131357600090506113c1565b8160018114611329576002811461133357611362565b60019150506113c1565b60ff84111561134557611344611266565b5b8360020a91508482111561135c5761135b611266565b5b506113c1565b5060208310610133831016604e8410600b84101617156113975782820a90508381111561139257611391611266565b5b6113c1565b6113a484848460016112a2565b925090508184048111156113bb576113ba611266565b5b81810290505b9392505050565b60006113d382611039565b91506113de83611039565b925061140b7fffffffffffffffffffffffffffffffffffffffffffffffffffffffffffffffff84846112f5565b905092915050565b600061141e82611039565b915061142983611039565b925082820261143781611039565b9150828204841483151761144e5761144d611266565b5b5092915050565b600061146082611039565b915061146b83611039565b925082820190508082111561148357611482611266565b5b92915050565b7f57616974696e6720666f72206e65787420636c61696d00000000000000000000600082015250565b60006114bf601683610f2f565b91506114ca82611489565b602082019050919050565b600060208201905081810360008301526114ee816114b2565b9050919050565b7f4d617820746f6b656e7320706572207573657220726561636865640000000000600082015250565b600061152b601b83610f2f565b9150611536826114f5565b602082019050919050565b6000602082019050818103600083015261155a8161151e565b9050919050565b7f4d617820746f6b656e7320726561636865640000000000000000000000000000600082015250565b6000611597601283610f2f565b91506115a282611561565b602082019050919050565b600060208201905081810360008301526115c68161158a565b9050919050565b6115d681610ffb565b82525050565b60006060820190506115f160008301866115cd565b6115fe60208301856110e5565b61160b60408301846110e5565b949350505050565b600060208201905061162860008301846115cd565b9291505056fea26469706673582212208363c5fd813915ded5045e4579b5c7d3a1b4480110f5d58f838773e829cf67dc64736f6c634300081c0033",
  "linkReferences": {},
  "deployedLinkReferences": {}
}