{
  "_format": "hh-sol-artifact-1",
  "contractName": "OERVoting",
  "sourceName": "contracts/OERVoting.sol",
  "abi": [
    {
      "inputs": [
        {
          "internalType": "address",
          "name": "_tokenAddress",
          "type": "address"
        }
      ],
      "stateMutability": "nonpayable",
      "type": "constructor"
    },
    {
      "inputs": [],
      "name": "DECIMALS",
      "outputs": [
        {
          "internalType": "uint256",
          "name": "",
          "type": "uint256"
        }
      ],
      "stateMutability": "view",
      "type": "function"
    },
    {
      "inputs": [
        {
          "internalType": "uint256",
          "name": "oerId",
          "type": "uint256"
        }
      ],
      "name": "getOerVotes",
      "outputs": [
        {
          "internalType": "uint256",
          "name": "",
          "type": "uint256"
        }
      ],
      "stateMutability": "view",
      "type": "function"
    },
    {
      "inputs": [
        {
          "internalType": "uint256",
          "name": "oerId",
          "type": "uint256"
        }
      ],
      "name": "getOerVotesInOERT",
      "outputs": [
        {
          "internalType": "uint256",
          "name": "",
          "type": "uint256"
        }
      ],
      "stateMutability": "view",
      "type": "function"
    },
    {
      "inputs": [
        {
          "internalType": "uint256",
          "name": "oerId",
          "type": "uint256"
        }
      ],
      "name": "hasVotes",
      "outputs": [
        {
          "internalType": "bool",
          "name": "",
          "type": "bool"
        }
      ],
      "stateMutability": "view",
      "type": "function"
    },
    {
      "inputs": [
        {
          "internalType": "uint256",
          "name": "",
          "type": "uint256"
        },
        {
          "internalType": "address",
          "name": "",
          "type": "address"
        }
      ],
      "name": "oerPerUserVotes",
      "outputs": [
        {
          "internalType": "uint256",
          "name": "",
          "type": "uint256"
        }
      ],
      "stateMutability": "view",
      "type": "function"
    },
    {
      "inputs": [
        {
          "internalType": "uint256",
          "name": "",
          "type": "uint256"
        }
      ],
      "name": "oerTotalVotes",
      "outputs": [
        {
          "internalType": "uint256",
          "name": "",
          "type": "uint256"
        }
      ],
      "stateMutability": "view",
      "type": "function"
    },
    {
      "inputs": [
        {
          "internalType": "uint256",
          "name": "oerId",
          "type": "uint256"
        },
        {
          "internalType": "uint256",
          "name": "tokenAmount",
          "type": "uint256"
        }
      ],
      "name": "voteToken",
      "outputs": [],
      "stateMutability": "payable",
      "type": "function"
    },
    {
      "inputs": [],
      "name": "votingToken",
      "outputs": [
        {
          "internalType": "contract IERC20",
          "name": "",
          "type": "address"
        }
      ],
      "stateMutability": "view",
      "type": "function"
    }
  ],
  "bytecode": "0x608060405234801561001057600080fd5b50604051610ef1380380610ef1833981810160405281019061003291906100dc565b80600260006101000a81548173ffffffffffffffffffffffffffffffffffffffff021916908373ffffffffffffffffffffffffffffffffffffffff16021790555050610109565b600080fd5b600073ffffffffffffffffffffffffffffffffffffffff82169050919050565b60006100a98261007e565b9050919050565b6100b98161009e565b81146100c457600080fd5b50565b6000815190506100d6816100b0565b92915050565b6000602082840312156100f2576100f1610079565b5b6000610100848285016100c7565b91505092915050565b610dd9806101186000396000f3fe60806040526004361061007b5760003560e01c80636abdbe361161004e5780636abdbe36146101625780638def43301461019f578063b0340123146101dc578063bc19ab6c146102075761007b565b80631c15ac75146100805780632152e279146100bd57806323009a63146100fa5780632e0f262514610137575b600080fd5b34801561008c57600080fd5b506100a760048036038101906100a29190610718565b610223565b6040516100b49190610767565b60405180910390f35b3480156100c957600080fd5b506100e460048036038101906100df9190610782565b610248565b6040516100f19190610767565b60405180910390f35b34801561010657600080fd5b50610121600480360381019061011c9190610782565b61027d565b60405161012e91906107ca565b60405180910390f35b34801561014357600080fd5b5061014c61029c565b6040516101599190610767565b60405180910390f35b34801561016e57600080fd5b5061018960048036038101906101849190610782565b6102a1565b6040516101969190610767565b60405180910390f35b3480156101ab57600080fd5b506101c660048036038101906101c19190610782565b6102b9565b6040516101d39190610767565b60405180910390f35b3480156101e857600080fd5b506101f16102d6565b6040516101fe9190610844565b60405180910390f35b610221600480360381019061021c919061085f565b6102fc565b005b6000602052816000526040600020602052806000526040600020600091509150505481565b60006012600a6102589190610a01565b60016000848152602001908152602001600020546102769190610a7b565b9050919050565b6000806001600084815260200190815260200160002054119050919050565b601281565b60016020528060005260406000206000915090505481565b600060016000838152602001908152602001600020549050919050565b600260009054906101000a900473ffffffffffffffffffffffffffffffffffffffff1681565b6000811161033f576040517f08c379a000000000000000000000000000000000000000000000000000000000815260040161033690610b09565b60405180910390fd5b80600260009054906101000a900473ffffffffffffffffffffffffffffffffffffffff1673ffffffffffffffffffffffffffffffffffffffff166370a08231336040518263ffffffff1660e01b815260040161039b9190610b38565b602060405180830381865afa1580156103b8573d6000803e3d6000fd5b505050506040513d601f19601f820116820180604052508101906103dc9190610b68565b101561041d576040517f08c379a000000000000000000000000000000000000000000000000000000000815260040161041490610be1565b60405180910390fd5b600260009054906101000a900473ffffffffffffffffffffffffffffffffffffffff1673ffffffffffffffffffffffffffffffffffffffff166323b872dd3330846040518463ffffffff1660e01b815260040161047c93929190610c01565b6020604051808303816000875af115801561049b573d6000803e3d6000fd5b505050506040513d601f19601f820116820180604052508101906104bf9190610c64565b508060008084815260200190815260200160002060003373ffffffffffffffffffffffffffffffffffffffff1673ffffffffffffffffffffffffffffffffffffffff168152602001908152602001600020600082825461051f9190610c91565b925050819055506105656040518060400160405280601381526020017f566f746520746f6b656e20616d6f756e743a200000000000000000000000000081525082610593565b806001600084815260200190815260200160002060008282546105889190610c91565b925050819055505050565b61062b82826040516024016105a9929190610d44565b6040516020818303038152906040527fb60e72cc000000000000000000000000000000000000000000000000000000007bffffffffffffffffffffffffffffffffffffffffffffffffffffffff19166020820180517bffffffffffffffffffffffffffffffffffffffffffffffffffffffff838183161783525050505061062f565b5050565b6106468161063e61064961066a565b63ffffffff16565b50565b60006a636f6e736f6c652e6c6f679050600080835160208501845afa505050565b610675819050919050565b61067d610d74565b565b600080fd5b6000819050919050565b61069781610684565b81146106a257600080fd5b50565b6000813590506106b48161068e565b92915050565b600073ffffffffffffffffffffffffffffffffffffffff82169050919050565b60006106e5826106ba565b9050919050565b6106f5816106da565b811461070057600080fd5b50565b600081359050610712816106ec565b92915050565b6000806040838503121561072f5761072e61067f565b5b600061073d858286016106a5565b925050602061074e85828601610703565b9150509250929050565b61076181610684565b82525050565b600060208201905061077c6000830184610758565b92915050565b6000602082840312156107985761079761067f565b5b60006107a6848285016106a5565b91505092915050565b60008115159050919050565b6107c4816107af565b82525050565b60006020820190506107df60008301846107bb565b92915050565b6000819050919050565b600061080a610805610800846106ba565b6107e5565b6106ba565b9050919050565b600061081c826107ef565b9050919050565b600061082e82610811565b9050919050565b61083e81610823565b82525050565b60006020820190506108596000830184610835565b92915050565b600080604083850312156108765761087561067f565b5b6000610884858286016106a5565b9250506020610895858286016106a5565b9150509250929050565b7f4e487b7100000000000000000000000000000000000000000000000000000000600052601160045260246000fd5b60008160011c9050919050565b6000808291508390505b6001851115610925578086048111156109015761090061089f565b5b60018516156109105780820291505b808102905061091e856108ce565b94506108e5565b94509492505050565b60008261093e57600190506109fa565b8161094c57600090506109fa565b8160018114610962576002811461096c5761099b565b60019150506109fa565b60ff84111561097e5761097d61089f565b5b8360020a9150848211156109955761099461089f565b5b506109fa565b5060208310610133831016604e8410600b84101617156109d05782820a9050838111156109cb576109ca61089f565b5b6109fa565b6109dd84848460016108db565b925090508184048111156109f4576109f361089f565b5b81810290505b9392505050565b6000610a0c82610684565b9150610a1783610684565b9250610a447fffffffffffffffffffffffffffffffffffffffffffffffffffffffffffffffff848461092e565b905092915050565b7f4e487b7100000000000000000000000000000000000000000000000000000000600052601260045260246000fd5b6000610a8682610684565b9150610a9183610684565b925082610aa157610aa0610a4c565b5b828204905092915050565b600082825260208201905092915050565b7f546f6b656e20616d6f756e74206d75737420626520706f736974697665000000600082015250565b6000610af3601d83610aac565b9150610afe82610abd565b602082019050919050565b60006020820190508181036000830152610b2281610ae6565b9050919050565b610b32816106da565b82525050565b6000602082019050610b4d6000830184610b29565b92915050565b600081519050610b628161068e565b92915050565b600060208284031215610b7e57610b7d61067f565b5b6000610b8c84828501610b53565b91505092915050565b7f4e6f74206861766520656e6f75676820746f6b656e7300000000000000000000600082015250565b6000610bcb601683610aac565b9150610bd682610b95565b602082019050919050565b60006020820190508181036000830152610bfa81610bbe565b9050919050565b6000606082019050610c166000830186610b29565b610c236020830185610b29565b610c306040830184610758565b949350505050565b610c41816107af565b8114610c4c57600080fd5b50565b600081519050610c5e81610c38565b92915050565b600060208284031215610c7a57610c7961067f565b5b6000610c8884828501610c4f565b91505092915050565b6000610c9c82610684565b9150610ca783610684565b9250828201905080821115610cbf57610cbe61089f565b5b92915050565b600081519050919050565b60005b83811015610cee578082015181840152602081019050610cd3565b60008484015250505050565b6000601f19601f8301169050919050565b6000610d1682610cc5565b610d208185610aac565b9350610d30818560208601610cd0565b610d3981610cfa565b840191505092915050565b60006040820190508181036000830152610d5e8185610d0b565b9050610d6d6020830184610758565b9392505050565b7f4e487b7100000000000000000000000000000000000000000000000000000000600052605160045260246000fdfea264697066735822122062f3886c31a3e662cc4adcc1bdccbcfb843b05880441c8ea4a0314754750c76464736f6c634300081c0033",
  "linkReferences": {},
  "deployedLinkReferences": {}
}