{
  "_format": "hh-sol-artifact-1",
  "contractName": "OERVoting",
  "sourceName": "contracts/OERVoting.sol",
  "abi": [
    {
      "inputs": [
        {
          "internalType": "address",
          "name": "_tokenAddress",
          "type": "address"
        }
      ],
      "stateMutability": "nonpayable",
      "type": "constructor"
    },
    {
      "inputs": [],
      "name": "DECIMALS",
      "outputs": [
        {
          "internalType": "uint256",
          "name": "",
          "type": "uint256"
        }
      ],
      "stateMutability": "view",
      "type": "function"
    },
    {
      "inputs": [
        {
          "internalType": "uint256",
          "name": "oerId",
          "type": "uint256"
        }
      ],
      "name": "getOerVotes",
      "outputs": [
        {
          "internalType": "uint256",
          "name": "",
          "type": "uint256"
        }
      ],
      "stateMutability": "view",
      "type": "function"
    },
    {
      "inputs": [
        {
          "internalType": "uint256",
          "name": "oerId",
          "type": "uint256"
        }
      ],
      "name": "getOerVotesInOERT",
      "outputs": [
        {
          "internalType": "uint256",
          "name": "",
          "type": "uint256"
        }
      ],
      "stateMutability": "view",
      "type": "function"
    },
    {
      "inputs": [
        {
          "internalType": "uint256",
          "name": "oerId",
          "type": "uint256"
        }
      ],
      "name": "hasVotes",
      "outputs": [
        {
          "internalType": "bool",
          "name": "",
          "type": "bool"
        }
      ],
      "stateMutability": "view",
      "type": "function"
    },
    {
      "inputs": [
        {
          "internalType": "uint256",
          "name": "",
          "type": "uint256"
        },
        {
          "internalType": "address",
          "name": "",
          "type": "address"
        }
      ],
      "name": "oerPerUserVotes",
      "outputs": [
        {
          "internalType": "uint256",
          "name": "",
          "type": "uint256"
        }
      ],
      "stateMutability": "view",
      "type": "function"
    },
    {
      "inputs": [
        {
          "internalType": "uint256",
          "name": "",
          "type": "uint256"
        }
      ],
      "name": "oerTotalVotes",
      "outputs": [
        {
          "internalType": "uint256",
          "name": "",
          "type": "uint256"
        }
      ],
      "stateMutability": "view",
      "type": "function"
    },
    {
      "inputs": [
        {
          "internalType": "uint256",
          "name": "oerId",
          "type": "uint256"
        },
        {
          "internalType": "uint256",
          "name": "tokenAmount",
          "type": "uint256"
        }
      ],
      "name": "voteToken",
      "outputs": [],
      "stateMutability": "payable",
      "type": "function"
    },
    {
      "inputs": [],
      "name": "votingToken",
      "outputs": [
        {
          "internalType": "contract IERC20",
          "name": "",
          "type": "address"
        }
      ],
      "stateMutability": "view",
      "type": "function"
    }
  ],
  "bytecode": "0x608060405234801561001057600080fd5b50604051610cfb380380610cfb833981810160405281019061003291906100dc565b80600260006101000a81548173ffffffffffffffffffffffffffffffffffffffff021916908373ffffffffffffffffffffffffffffffffffffffff16021790555050610109565b600080fd5b600073ffffffffffffffffffffffffffffffffffffffff82169050919050565b60006100a98261007e565b9050919050565b6100b98161009e565b81146100c457600080fd5b50565b6000815190506100d6816100b0565b92915050565b6000602082840312156100f2576100f1610079565b5b6000610100848285016100c7565b91505092915050565b610be3806101186000396000f3fe60806040526004361061007b5760003560e01c80636abdbe361161004e5780636abdbe36146101625780638def43301461019f578063b0340123146101dc578063bc19ab6c146102075761007b565b80631c15ac75146100805780632152e279146100bd57806323009a63146100fa5780632e0f262514610137575b600080fd5b34801561008c57600080fd5b506100a760048036038101906100a29190610700565b610223565b6040516100b4919061074f565b60405180910390f35b3480156100c957600080fd5b506100e460048036038101906100df919061076a565b610248565b6040516100f1919061074f565b60405180910390f35b34801561010657600080fd5b50610121600480360381019061011c919061076a565b610265565b60405161012e91906107b2565b60405180910390f35b34801561014357600080fd5b5061014c610284565b604051610159919061074f565b60405180910390f35b34801561016e57600080fd5b506101896004803603810190610184919061076a565b610289565b604051610196919061074f565b60405180910390f35b3480156101ab57600080fd5b506101c660048036038101906101c1919061076a565b6102a1565b6040516101d3919061074f565b60405180910390f35b3480156101e857600080fd5b506101f16102be565b6040516101fe919061082c565b60405180910390f35b610221600480360381019061021c9190610847565b6102e4565b005b6000602052816000526040600020602052806000526040600020600091509150505481565b600060016000838152602001908152602001600020549050919050565b6000806001600084815260200190815260200160002054119050919050565b601281565b60016020528060005260406000206000915090505481565b600060016000838152602001908152602001600020549050919050565b600260009054906101000a900473ffffffffffffffffffffffffffffffffffffffff1681565b60008111610327576040517f08c379a000000000000000000000000000000000000000000000000000000000815260040161031e906108e4565b60405180910390fd5b80600260009054906101000a900473ffffffffffffffffffffffffffffffffffffffff1673ffffffffffffffffffffffffffffffffffffffff166370a08231336040518263ffffffff1660e01b81526004016103839190610913565b602060405180830381865afa1580156103a0573d6000803e3d6000fd5b505050506040513d601f19601f820116820180604052508101906103c49190610943565b1015610405576040517f08c379a00000000000000000000000000000000000000000000000000000000081526004016103fc906109bc565b60405180910390fd5b600260009054906101000a900473ffffffffffffffffffffffffffffffffffffffff1673ffffffffffffffffffffffffffffffffffffffff166323b872dd3330846040518463ffffffff1660e01b8152600401610464939291906109dc565b6020604051808303816000875af1158015610483573d6000803e3d6000fd5b505050506040513d601f19601f820116820180604052508101906104a79190610a3f565b508060008084815260200190815260200160002060003373ffffffffffffffffffffffffffffffffffffffff1673ffffffffffffffffffffffffffffffffffffffff16815260200190815260200160002060008282546105079190610a9b565b9250508190555061054d6040518060400160405280601381526020017f566f746520746f6b656e20616d6f756e743a20000000000000000000000000008152508261057b565b806001600084815260200190815260200160002060008282546105709190610a9b565b925050819055505050565b6106138282604051602401610591929190610b4e565b6040516020818303038152906040527fb60e72cc000000000000000000000000000000000000000000000000000000007bffffffffffffffffffffffffffffffffffffffffffffffffffffffff19166020820180517bffffffffffffffffffffffffffffffffffffffffffffffffffffffff8381831617835250505050610617565b5050565b61062e81610626610631610652565b63ffffffff16565b50565b60006a636f6e736f6c652e6c6f679050600080835160208501845afa505050565b61065d819050919050565b610665610b7e565b565b600080fd5b6000819050919050565b61067f8161066c565b811461068a57600080fd5b50565b60008135905061069c81610676565b92915050565b600073ffffffffffffffffffffffffffffffffffffffff82169050919050565b60006106cd826106a2565b9050919050565b6106dd816106c2565b81146106e857600080fd5b50565b6000813590506106fa816106d4565b92915050565b6000806040838503121561071757610716610667565b5b60006107258582860161068d565b9250506020610736858286016106eb565b9150509250929050565b6107498161066c565b82525050565b60006020820190506107646000830184610740565b92915050565b6000602082840312156107805761077f610667565b5b600061078e8482850161068d565b91505092915050565b60008115159050919050565b6107ac81610797565b82525050565b60006020820190506107c760008301846107a3565b92915050565b6000819050919050565b60006107f26107ed6107e8846106a2565b6107cd565b6106a2565b9050919050565b6000610804826107d7565b9050919050565b6000610816826107f9565b9050919050565b6108268161080b565b82525050565b6000602082019050610841600083018461081d565b92915050565b6000806040838503121561085e5761085d610667565b5b600061086c8582860161068d565b925050602061087d8582860161068d565b9150509250929050565b600082825260208201905092915050565b7f546f6b656e20616d6f756e74206d75737420626520706f736974697665000000600082015250565b60006108ce601d83610887565b91506108d982610898565b602082019050919050565b600060208201905081810360008301526108fd816108c1565b9050919050565b61090d816106c2565b82525050565b60006020820190506109286000830184610904565b92915050565b60008151905061093d81610676565b92915050565b60006020828403121561095957610958610667565b5b60006109678482850161092e565b91505092915050565b7f4e6f74206861766520656e6f75676820746f6b656e7300000000000000000000600082015250565b60006109a6601683610887565b91506109b182610970565b602082019050919050565b600060208201905081810360008301526109d581610999565b9050919050565b60006060820190506109f16000830186610904565b6109fe6020830185610904565b610a0b6040830184610740565b949350505050565b610a1c81610797565b8114610a2757600080fd5b50565b600081519050610a3981610a13565b92915050565b600060208284031215610a5557610a54610667565b5b6000610a6384828501610a2a565b91505092915050565b7f4e487b7100000000000000000000000000000000000000000000000000000000600052601160045260246000fd5b6000610aa68261066c565b9150610ab18361066c565b9250828201905080821115610ac957610ac8610a6c565b5b92915050565b600081519050919050565b60005b83811015610af8578082015181840152602081019050610add565b60008484015250505050565b6000601f19601f8301169050919050565b6000610b2082610acf565b610b2a8185610887565b9350610b3a818560208601610ada565b610b4381610b04565b840191505092915050565b60006040820190508181036000830152610b688185610b15565b9050610b776020830184610740565b9392505050565b7f4e487b7100000000000000000000000000000000000000000000000000000000600052605160045260246000fdfea2646970667358221220764d25677d7130cafc7e1b6d1477e997bf51099f869ae0ff9e587393101d396564736f6c634300081c0033",
  "linkReferences": {},
  "deployedLinkReferences": {}
}